:020000040800F2
:10000000FC4F00204D010008293200082B32000867
:100010002D3200082F3200083132000800000000A5
:100020000000000000000000000000003332000863
:10003000353200080000000037320008393200086D
:100040009501000895010008950100089501000838
:100050009501000895010008950100089501000828
:100060009501000895010008950100089501000818
:100070009501000895010008950100089501000808
:1000800095010008950100089501000895010008F8
:100090003D3200089501000895010008950100080F
:1000A00095010008950100089501000895010008D8
:1000B00095010008950100089501000895010008C8
:1000C00095010008950100089501000895010008B8
:1000D00095010008950100089501000895010008A8
:1000E0009501000895010008950100080000000036
:1000F0000000000000000000000000000000000000
:0C01000000000000000000005FF808F1A3
:10010C0010B5054C237833B9044B13B10448AFF345
:10011C0000800123237010BD20010020000000008E
:10012C001C37000808B5034B1BB103490348AFF358
:10013C00008008BD00000000240100201C370008CE
:10014C000C480D490D4A002302E0D458C450043326
:10015C00C4188C42F9D30A4A0A4C002301E01360FC
:10016C000432A242FBD303F069F803F097FA02F0D1
:10017C0091FF70470000002020010020403A000849
:10018C0020010020740E0020FEE7704710B54FF0E0
:10019C00FF320024044BDA601C61DA60DC60FFF78C
:1001AC00F4FF204610BD00BF0010024038B50E4BC6
:1001BC00054618784FF47A73B3FBF0F30B4A1068CA
:1001CC00B0FBF3F000F09CF8044658B90F2D09D899
:1001DC00024629464FF0FF3000F054F82046044BFD
:1001EC001D6038BD0120FCE700000020AC000020A1
:1001FC0004000020074A08B51368032043F01003DD
:10020C00136000F02DF80020FFF7D0FF02F0E4FFA0
:10021C00002008BD00200240034A044B11681B78E3
:10022C000B441360704700BFC8050020000000207D
:10023C00014B1868704700BFC805002038B504464C
:10024C00FFF7F6FF0546631C1EBF044B1B78E41832
:10025C00FFF7EEFF431BA342FAD338BD000000208A
:10026C0007490302CA6803F4E06322F4E062120453
:10027C00120C134343F0BF6343F40033CB6070475D
:10028C0000ED00E0164B30B5DC68C4F30224C4F179
:10029C000703251D042B28BF0423062D4FF0FF3523
:1002AC0098BF002405FA03F388BF033C21EA03033B
:1002BC00A34005FA04F422EA0402002843EA0203EC
:1002CC00ACBF00F16040074A4FEA0313DBB2B5BF85
:1002DC0000F00F0000F56140135480F8003330BD7E
:1002EC0000ED00E014ED00E00123420900F01F00D6
:1002FC0003FA00F0014B43F82200704700E100E0E4
:10030C000138B0F1807F0AD2F021064B064A5860C2
:10031C0082F823100020072298601A607047012091
:10032C00704700BF10E000E000ED00E0114AD36818
:10033C0013F0100305D01049CB6943F00203CB61D5
:10034C001023D268500706D50B4943F00403CA6941
:10035C0042F00102CA61074AD169C90708D50648AB
:10036C00C16941F00401C161D16921F00101D16180
:10037C00D360704700200240D0050020064B18695E
:10038C0010F0800007D0054A5A6002F188325A609A
:10039C001869C0F3C0107047002002402301674564
:1003AC00034A0020136943F080031361704700BFB8
:1003BC0000200240F8B50446FFF73AFF114D0746FE
:1003CC002E46EB68D80712D4EB68990644BF20235D
:1003DC00EB60F368DA0606D4F369DB0703D4F06844
:1003EC0010F0040007D0FFF7A1FF012003E0631C0D
:1003FC00E7D00CB90320F8BDFFF71AFFC01BA042D1
:10040C00DFD9F7E7002002402DE9F84F254E1F46B3
:10041C00337E0546012B8846914640D001234CF291
:10042C0050303376FFF7C6FFA8BB012D03D0022D49
:10043C000CBF022504254FF0000A5346DFF868B0C4
:10044C004FEA0A14C4F12001A4F1200207FA01F1C9
:10045C0029FA04F4F3610C4327FA02F21443DBF893
:10046C001020A4B242F00102CBF810204CF2503014
:10047C0028F81A40FFF79EFFDBF8102022F001024B
:10048C00CBF8102038B90AF1010A5FFA8AF29542CA
:10049C004FF00003D4D800233376BDE8F88F022048
:1004AC00FBE700BFD0050020002002400022064BD5
:1004BC00DA61064B1A6942F004021A611A6942F0B9
:1004CC0040021A61704700BFD00500200020024096
:1004DC000022064BDA61064B1A6942F002021A61DD
:1004EC0058611A6942F040021A617047D005002029
:1004FC00002002402DE9F041224E0546337E88460D
:10050C00012B3DD00124347603684CF25030022B81
:10051C0013D1FFF74FFF20B1012000233376BDE844
:10052C00F081FFF7C3FF4CF25030FFF743FF164A40
:10053C00136923F004031361EFE7FFF73BFF002877
:10054C00EAD14FF0FF33C8F800302046AF680E4CAC
:10055C00D5E9023203EB8223BB42DED93846FFF7E2
:10056C00B7FF4CF25030FFF725FF236923F002034D
:10057C00236110B1C8F80070CFE707F58067E7E793
:10058C000220CCE7D0050020002002402DE9F041EC
:10059C00044686B000285ED090F8293403F0FF02A0
:1005AC001BB980F8282402F097FE032325466E46DB
:1005BC0084F8293455F8100B00F086FC0FCD0FC6CB
:1005CC002B6804F10408336098E80E00206800F0F2
:1005DC006BFC0021206800F081FC002123462246A0
:1005EC000126084604F1100582F828109186013185
:1005FC000F29C2E90E0082F8296082F82B001064E2
:10060C0002F12002F0D10022174683F828229A86A4
:10061C0001320F2AC3E98E7783F8297283F82B7283
:10062C00C3F8407203F12003EFD16E460FCD0FC615
:10063C002B68336098E80E00206800F051FC012311
:10064C0084F82470206884F8293400F02AFF0020F4
:10065C0006B0BDE8F0810120FAE710B590F8283417
:10066C000446012B0ED0012180F8281402F067FFFC
:10067C00206800F014FF206800F01DFC002084F8B6
:10068C00280410BD0220FCE710B590F8283404466D
:10069C00012B0FD0012380F82834006800F014FCE3
:1006AC00206800F0EBFE206800F0FBFE002084F8D0
:1006BC00280410BD0220FCE710B590F8282404464D
:1006CC00012A0BD0012280F8241080F8282400681D
:1006DC0000F0DFFE002084F8280410BD0220FCE7A7
:1006EC0038B5044648B2002801F07F05B5BF04EBCD
:1006FC00451104EB4111283101F50A71C00F0D7041
:10070C0048700A61CB7094F82834012B09D001236E
:10071C00206884F8283400F003FC002084F82804B6
:10072C0038BD0220FCE74BB210B5002B01F07F0264
:10073C00B5BF00EB421100EB4111283101F50A71F4
:10074C00DB0F0A704B7090F828340446012B09D04B
:10075C00012380F82834006800F04EFD002084F856
:10076C00280410BD0220FCE738B5002501F07F01FC
:10077C0000EB411484F82812C4E98F23C4F84452C6
:10078C0084F8295204F50A71006800F0A1FE28468D
:10079C0038BD01F00F0100EB4110B0F84402704776
:1007AC0001F07F0138B500EB41140025C4E90F239B
:1007BC0084F8281001232146656484F829302831F7
:1007CC00006800F085FE284638BD00002DE9F3478F
:1007DC000446006800F067FE000400F19880206871
:1007EC0000F061FE41050FD522682046B2F8443076
:1007FC0023F480631B041B0CA2F8443002F0A5FD0B
:10080C0000212046FFF758FF206800F04CFE4704FB
:10081C0008D52268B2F8443023F480431B041B0C27
:10082C00A2F84430206800F03EFE860408D5226809
:10083C00B2F8443023F400531B041B0CA2F84430D0
:10084C00206800F030FEC5041CD522682046B2F8A2
:10085C00403023F004031B041B0CA2F84030B2F808
:10086C00403023F008031B041B0CA2F8403002F0AC
:10087C008FFD2268B2F8443023F480531B041B0C08
:10088C00A2F84430206800F00EFE00051DD520684B
:10089C00B0F840309BB243F00803A0F84030B0F8F9
:1008AC00443023F400631B041B0CA0F84430B0F854
:1008BC0040309BB243F00403A0F8403000F0F3FD4D
:1008CC00C10402D4204602F053FD206800F0EBFD79
:1008DC0082050BD522682046B2F8443023F400730D
:1008EC001B041B0CA2F8443002F02BFD206800F016
:1008FC00DAFDC30508D52268B2F8443023F48073BE
:10090C001B041B0CA2F8443002B0BDE8F087002396
:10091C00C64FDFF81C83DFF81C93ADF80430ADF83C
:10092C0006302068B0F844309BB2ADF804301B049C
:10093C007FF555AFBDF8045015F00F0540F0AB80B6
:10094C00BDF80410038811F010019BB226D13B4076
:10095C000380B0F8503094F828209BB203EBC2030C
:10096C0000EB4300D0F80434E26BC3F30903636477
:10097C001344E363204602F0DDFC94F82430002B92
:10098C00CFD0226C002ACCD194F82430216843F0CB
:10099C008003A1F84C3084F82420C2E7ADF806306F
:1009AC00BDF806301A051FD5B0F8503094F828223F
:1009BC009BB203EBC20300EB4303D3F80C34B4F843
:1009CC002C22C3F30903C4F8443204F22C4100F086
:1009DC006DFE22682046138823F070031B051B0D47
:1009EC00138002F099FC9CE7BDF806301B0498D5E7
:1009FC00038823F070031B051B0D0380B0F85030E7
:100A0C0094F828229BB203EBC20300EB4303D3F808
:100A1C000C34C3F30903C4F8443263B1B4F82C2288
:100A2C00D4F83C1200F042FED4F83C32D4F8442204
:100A3C001344C4F83C320021204602F073FC2268B7
:100A4C00D4F83852B2F850103E2D89B201F106019B
:100A5C0002F5806017D9C5F34F13EE0604BF03F1FE
:100A6C00FF339BB249EA83239BB240F811301388C1
:100A7C009BB203EA080383F4405343F4004343F06E
:100A8C00800313804DE7C5F34F03ED0744BF0133DB
:100A9C009BB29B02E8E730F825309BB2ADF80630EC
:100AAC00BDF8063019043FD530F8253004EB45115C
:100ABC0023F070031B051B0D20F8253091F8323202
:100ACC0000F580624FEA451A002B72D1B0F8503015
:100ADC0091F828629BB2063303EBC60352F81360FD
:100AEC00C6F3090636B1B1F82C223346D1F83C12C4
:100AFC0000F0DCFD04EB0A01D1F84432D1F83C22C1
:100B0C003344C1F84432D1F840323244C1F83C226B
:100B1C0023B1D1F83802864280F08180A24420466D
:100B2C009AF8281202F0FEFBBDF806301A067FF583
:100B3C00F8AE206804EB451130F825306E019BB2FD
:100B4C003B4020F8253091F8323000F580620235B8
:100B5C00002B71D1B0F8503091F828C09BB2023301
:100B6C0003EBCC0352F8133004EB4515C3F3090324
:100B7C006B601BB18A8DC96B00F09BFC226826440C
:100B8C00B2F8503096F828109BB2023303EBC10335
:100B9C0002EB4303D3F80024F36BC2F30902726433
:100BAC001A44336C2046F263002B7CD102F0C2FB5A
:100BBC00B7E691F8283230F823C0DE00B0F8503098
:100BCC001CF4804F9BB233441ED0023352F8136096
:100BDC00C6F3090636B13346B1F82E22D1F83C12D1
:100BEC0000F064FD04EB0A0393F82812226832F833
:100BFC00213023F0F0031B051B0D43F4004343F09D
:100C0C00C00322F8213075E7063352F81360C6F39F
:100C1C000906002EE6D03346B1F83022DEE7204636
:100C2C0091F82812FFF7A0FD7EE700BF0F8FFFFFA2
:100C3C008FBFFFFF0080FFFF91F8283030F823E0D2
:100C4C004FEAC30CB0F850301EF0400F9BB2634417
:100C5C001DD0023352F8133004EB4515C3F30903CE
:100C6C006B601BB1CA8DC96B00F023FCA31993F800
:100C7C002810226832F8213023F0F0031B051B0DDD
:100C8C0043F4404343F0800322F8213076E70633E7
:100C9C0052F8133004EB4515C3F309036B60002BBA
:100CAC00E4D00A8EDFE7FFF77BFD3AE6012238B588
:100CBC004BB2002B01F07F05B5BF00EB451100EBEB
:100CCC004111283101F50A71DB0F8A700D704B70E0
:100CDC0090F82834044693420ED080F828240068FB
:100CEC0000F058FB25B9206804F22C4100F0DFFB22
:100CFC00002084F8280438BD0220FCE738B5002514
:100D0C004BB2002B01F07F02B5BF00EB421100EBA0
:100D1C004111283101F50A71DB0F8D700A704B708F
:100D2C0090F828340446012B09D0012380F828348C
:100D3C00006800F061FB284684F8285438BD022076
:100D4C00FCE710B590F828340446012B10D0012391
:100D5C0080F828340B06006807D501F07F0100F0FD
:100D6C00DAF8002084F8280410BD00F0D6F8F8E773
:100D7C000220F9E711F0800F1BBF01F07F0100EB9F
:100D8C00411000EB4110283008BF00F50A7099B2F1
:100D9C001AB9827281800020704701221B0C82726A
:100DAC00C1800381F7E72DE9F04F0D68C5F30F25DE
:100DBC0095FAA5F24FF00F09B2FA82F24FF0030840
:100DCC004FF0040E40F2011C35FA02F302D101205F
:100DDC00BDE8F08F012393402B4263D0072A83BFD9
:100DEC004FF00114A2F1080304FA03F30CFA02F316
:100DFC0088BF43F080631E0E93FAA3FABAFA8AFAFC
:100E0C0093FAA3FBBBFA8BFB84594FEA8A0A09FAC3
:100E1C000AFA24EA0A0A4C684FEA8B0B04FA0BFB19
:100E2C004AEA0B048451C4684FEA132A9AFAAAFBC3
:100E3C00BBFA8BFB24EA0A0A0C6904FA0BF44AEAA3
:100E4C000404C4604C6824F00804012C2AD193FAE1
:100E5C00A3FABAFA8AFA93FAA3F4B4FA84F4875987
:100E6C004FEA840B4FEA8A0A8C6808FA0AFA27EAD6
:100E7C000A0A04FA0BF44AEA0404845193FAA3FB19
:100E8C00BBFA8BFB93FAA3F3B3FA83F3CF684FEA65
:100E9C008B0B0EFA0BFB9B0024EA0B0407FA03F3F3
:100EAC001C43845101328FE784B001A880E80E0006
:100EBC0004B000207047B0F840309BB243F43F437D
:100ECC00A0F8403000207047B0F8403023F4745341
:100EDC005B045B0CA0F8403000207047002070478A
:100EEC0084B010B5044603A880E80E00002001234E
:100EFC00A4F84030A4F84000A4F84400A4F8500032
:100F0C00B4F840309BB243F43F43A4F84030BDE802
:100F1C00104004B07047002070470020704700005C
:100F2C0070B5CB780A78032B0FD8DFE803F0026496
:100F3C00505930F8223023F4EC4323F070031B0497
:100F4C001B0C43F4007320F8223040F60F730C781E
:100F5C0030F824201A40224342F4004242F080022E
:100F6C0020F824208A7A0D7800F58064002A40F05D
:100F7C0090808A884E7852085200ED00002E45D0A1
:100F8C00B0F85060B6B2354444F815200C7830F8FF
:100F9C002420520608D530F82420134043F4004393
:100FAC0043F0C00320F824300A7830F8223023F4C0
:100FBC00E04323F040031B041B0C83F0200343F499
:100FCC00004343F0800320F82230002070BD30F83D
:100FDC00223023F4EC4323F070031B041B0CB2E708
:100FEC0030F8223023F4EC4323F070031B041B0C69
:100FFC0043F4C063A7E730F8223023F4EC4323F02A
:10100C0070031B041B0C43F480639CE7B0F8503056
:10101C009BB22B44043344F81320B0F850200D69D4
:10102C000B7892B206323E2D02EBC30229D9C5F3DE
:10103C004F16EB0604BF06F1FF339EB26D4B43EA2D
:10104C0086239BB244F812300A7830F822305E04C2
:10105C000BD530F8223023F0F0031B051B0D43F4A5
:10106C00404343F0800320F822300A7830F82230D5
:10107C0023F4804323F070031B041B0C83F44053B4
:10108C009DE7C5F34F03ED0744BF01339BB29B02B1
:10109C00D7E730F8252022F4F8721205120D42F42D
:1010AC00014242F0800220F82520B0F850200D7843
:1010BC0092B202EBC502CD886D086D0044F8125057
:1010CC00B0F850200D7892B2043202EBC5020D89B3
:1010DC006D086D0044F812504A780C78002A47D1FC
:1010EC0030F82420550408D530F82420134043F45C
:1010FC00404343F0800320F824300A7830F8223043
:10110C005C060BD530F8223023F0F0031B051B0DC9
:10111C0043F4004343F0C00320F822300A7830F83F
:10112C00223023F0F0031B051B0D43F4004343F066
:10113C00C00320F8223048F280020C7830F82430BA
:10114C0023F4804323F070031B041B0C83F44053E3
:10115C00134320F82430097830F8213023F4E0438D
:10116C0023F040031B041B0C134320F821302CE705
:10117C0030F82420520408D530F82420134043F4CE
:10118C00404343F0800320F824300A7830F82230B2
:10119C005B060BD530F8223023F0F0031B051B0D3A
:1011AC0043F4004343F0C00320F822300A7830F8AF
:1011BC00223023F0F0031B051B0D43F4404343F096
:1011CC00800320F8223048F280020C7830F824306A
:1011DC0023F4E04323F040031B041B0C134320F8BF
:1011EC002430097830F8213023F4804323F0700345
:1011FC00B8E700BF0080FFFF10B58C7A4A780B78F7
:10120C00CCBB02B330F8232052060BD530F8232088
:10121C0022F0F0021205120D42F4004242F0C0021C
:10122C0020F823200A7830F8223023F4E04323F00E
:10123C0040031B041B0C43F4004343F0800320F8D1
:10124C002230002010BD30F8232054040BD530F888
:10125C00232022F0F0021205120D42F4404242F01B
:10126C00800220F823200A7830F8223023F48043BF
:10127C0023F07003DDE7002A48D130F82320520414
:10128C000BD530F8232022F0F0021205120D42F497
:10129C00404242F0800220F823200A7830F82230B5
:1012AC005C060BD530F8223023F0F0031B051B0D28
:1012BC0043F4004343F0C00320F822300A7830F89E
:1012CC00223023F0F0031B051B0D43F4004343F0C5
:1012DC00C00320F8223048F280020C7830F8243019
:1012EC0023F4804323F070031B041B0C134320F8DE
:1012FC002430097830F8213023F4E04323F0400304
:10130C001B041B0C134320F821309AE730F82320E0
:10131C0052040BD530F8232022F0F0021205120DE6
:10132C0042F4404242F0800220F823200A7830F840
:10133C0022305B060BD530F8223023F0F0031B056E
:10134C001B0D43F4004343F0C00320F822300A780D
:10135C0030F8223023F0F0031B051B0D43F44043FF
:10136C0043F0800320F8223048F280020C7830F8E9
:10137C00243023F4E04323F040031B041B0C1343E1
:10138C0020F82430097830F8213023F4804323F0FE
:10139C007003B5E70A788AB9038823F4804323F0F5
:1013AC0040031B041B0C83F4805383F0100343F4A1
:1013BC00004343F080030380002070474B7883B1D7
:1013CC0030F8223023F4E04323F040031B041B0CC1
:1013DC0083F0100343F4004343F0800320F82230E1
:1013EC00EAE730F8223023F4804323F070031B0427
:1013FC001B0C83F48053EDE74B780A7813B330F869
:10140C0022305B060BD530F8223023F0F0031B059D
:10141C001B0D43F4004343F0C00320F822300A783C
:10142C0030F8223023F4E04323F040031B041B0C60
:10143C0083F0300343F4004343F0800320F8223060
:10144C000020704730F822305B040BD530F8223086
:10145C0023F0F0031B051B0D43F4404343F08003C2
:10146C0020F822300A7830F8223023F4804323F01D
:10147C0070031B041B0C83F44053DBE7012203466F
:10148C00A0F8402000200322A3F84400A3F8402039
:10149C00704711B98023A0F84C3000207047002011
:1014AC00704700207047B0F8440080B270470020AD
:1014BC007047013300F580605B1000EB420203B90A
:1014CC00704731F8020B013B22F8040BF7E70000E0
:1014DC00F8B54A780546012A0E468C690B69887A5C
:1014EC005BD19C428ABFE21A00221C468A61A3B2DD
:1014FC00496905F58067F8B9B2882846FFF7D9FF26
:10150C00B5F8503032789BB2023303EBC20347F884
:10151C001340327835F8223023F4E04323F04003B3
:10152C001B041B0C83F0300343F4004343F0800393
:10153C00002025F82230F8BD327835F822C0D000D2
:10154C00B5F850201CF0400F92B2024402F1020296
:10155C0047F81240284614BF3289F288FFF7A9FFDA
:10156C007378327863B935F8223023F0F0031B0519
:10157C001B0D43F4004343F0C00325F82230C8E7A9
:10158C00012BC6D135F8223023F0F0031B051B0DBF
:10159C0043F4404343F08003EFE79C4294BF0021A7
:1015AC00E11AB16188BF1C46337858BBB5F850209E
:1015BC003E2C92B202F1060202EBC30205F58060EA
:1015CC0018D9C4F34F11E40604BF01F1FF3399B2EB
:1015DC00354B43EA81239BB240F81230327835F810
:1015EC00223023F4804323F070031B041B0C83F480
:1015FC00405399E7C4F34F03E10744BF01339BB257
:10160C009B02E8E7BAB9B5F850203E2C92B202F131
:10161C00020202EBC30205F5806028D9C4F34F1116
:10162C00E30604BF01F1FF3399B21F4B43EA812358
:10163C009BB240F812307378327843BBB5F8503017
:10164C003E2C9BB203F1060303EBC20305F580604D
:10165C0015D9C4F34F11E40604BF01F1FF3291B266
:10166C00114A42EA812292B240F81320B6E7C4F341
:10167C004F03E70744BF01339BB29B02D8E7C4F387
:10168C004F02E10744BF013292B29202EBE7012B09
:10169C00A4D1B5F850309BB2023303EBC20305EB77
:1016AC004303C3F8004499E70080FFFF10B5002402
:1016BC00013300F580605B1000EB42009C4200D1CE
:1016CC0010BD50F8242021F814200134F6E7000056
:1016DC00084B82B01B68411C0193019B054B18BF42
:1016EC00013008B902B070471A68D20348BF00F144
:1016FC00FF30F6E710E000E0014B1860704700BFC8
:10170C00AC000020202303800048704760000020BC
:10171C0020230380004870474000002020230380D2
:10172C00004870478C0000200A2303800048704753
:10173C008000002010B5037C0446C3B94FF400733D
:10174C000222012101F06EFE4FF40073022281216E
:10175C00204601F067FE4FF41B7001F0EBFEC4F85D
:10176C00180258B1204600F0BCF8002010BD4023F0
:10177C000222012101F056FE4023E7E70120F5E7A4
:10178C0010B50446012101F05DFE8121204601F0D7
:10179C0059FE204600F0CDF8D4F8180220B101F023
:1017AC00CDFE0023C4F81832002010BD2DE9F04105
:1017BC000B78074613F060050C46D0F818822DD034
:1017CC00202D5DD14A78FE2A05D0FF2A19D000F0D1
:1017DC007AFE02251FE04D8885B9CE88012E0DD1E9
:1017EC001A060BD5D0F81C329B6998473246C8F8BC
:1017FC0000004146384600F08DFE0CE0214638468C
:10180C00E5E74A88002AF9D1CD88002DF6D11B06D0
:10181C00F4D400F083F82846BDE8F0814E780A2E07
:10182C001CD00B2E1ED0012EF5D1097901F018FE1B
:10183C003846217901F006FE94F90430002B3B7CEC
:10184C0016DA9BB94FF4007302228121384601F05D
:10185C00E9FD3846217900F013F9DCE7012208F1A3
:10186C000401C8E78B78C8F80430D4E74023EBE7D1
:10187C0023B94FF4007302223146E7E74023FAE71D
:10188C000025C8E708B500F075F8002008BD08B5BC
:10189C0000F08CF8002008BD09B1C0F81C12002023
:1018AC00704770B5D0F81852044695F818323BB909
:1018BC00D5F8143223B16B7A13B9012101F0DEFD96
:1018CC008121204601F0DAFD6B7A022B08D12046EB
:1018DC0005F503721F23BDE87040012101F016BE0F
:1018EC0070BD70B50446D0F8185200202881A5F8B8
:1018FC005C02D4F81C321B6898470121204601F089
:10190C00AFFD8121204601F0ABFD204605F50372A9
:10191C001F23BDE87040012101F0F8BD4FF4807326
:10192C00D0F81822012113811F2302F5037201F054
:10193C00EDBD0022D0F818321A72704770B50C4BFE
:10194C00D0F818420546C4F82C32002384F838121B
:10195C00237204F50B720D23812101F0C9FD284679
:10196C0004F503721F23BDE87040012101F0CEBDC8
:10197C005553425310B5D0F8181204460B7A022B6B
:10198C0007D0033B012B0FD80021BDE81040FFF717
:10199C00D5BF01F21B2291F8191200F09BF8002818
:1019AC0002DA01212046F0E710BD000070B5D0F836
:1019BC0018420546267A16B1012E56D070BDD4F8C1
:1019CC0010320121C4F83032D4F81432C4F8343255
:1019DC0001F0AAFD1F2894F819120BD1D4F80C228F
:1019EC00264B9A4206D1012904D894F81A32013BAD
:1019FC000F2B0BD920230522284600F09DFA022339
:101A0C0063722846BDE87040FFF74BBF284604F2CE
:101A1C001B2200F05FF80028237A07DA052BF0D19F
:101A2C0001212846BDE87040FFF788BF013B022B1F
:101A3C00C4D961890029F4D0D5F818222846D2F8E7
:101A4C00143282F83862994228BF1946D2F83432DF
:101A5C005B1AC2F83432042313728BB204F10C02F9
:101A6C008121BDE8704001F043BD94F8191204F2D5
:101A7C001B2200F02FF80028A0DAD1E7555342437F
:101A8C0010B5D0F81842637A022B05D1812101F0F0
:101A9C00F5FC0023637210BD0A06FCD5012BFAD0AD
:101AAC00BDE810400121FFF749BF10B5D0F818026E
:101ABC00120290F85D3200EBC3040133DBB2042B4D
:101ACC0008BF002384F83C12C4F8402280F85D3231
:101ADC0010BD00002DE9F743137805462F2B0C465B
:101AEC0016463DD8192B08D8032B66D0122B00F0C4
:101AFC009480002B45D020221BE21A3B152BFAD8E0
:101B0C0001A252F823F000BF6B1C0008611C0008F6
:101B1C00031B0008031B0008611C0008031B0008C2
:101B2C00031B0008031B0008031B0008891C00088A
:101B3C00031B0008E71C0008031B0008031B00081C
:101B4C00211D0008031B0008FD1D0008031B0008D5
:101B5C00031B0008031B0008031B0008191F0008C7
:101B6C005A2BC8D10822D0F81832C6495A8103F131
:101B7C0013020B3311F8010902F801099342F9D150
:101B8C0049E0D0F81862D6F81432002BB3D1D0F853
:101B9C001C3208469B689847044648B13A220221F9
:101BAC002846FFF782FF052333724FF0FF3400E025
:101BBC007081204603B0BDE8F083D0F818320020C5
:101BCC0003F10C0203F11E0102F8010B8A42FBD156
:101BDC0070221A730C2293F85D12DA7493F85C225B
:101BEC00914212D003EBC20191F83C4201329C733A
:101BFC0091F84142D2B21C7691F84012042A5976DF
:101C0C0014BF83F85C2283F85C0212225A81327969
:101C1C00122A98BF5A810024CBE77378D0F8182287
:101C2C00DB0714D42421D0F81C32DB6901FB04340B
:101C3C002379317905338B4228BF0B465381002B16
:101C4C00E9D0013B9BB2E05CD1180873F7E707239E
:101C5C008D4CF3E7D0F8183200205881DBE70822CE
:101C6C00D0F8183289495A8103F113020B3311F859
:101C7C00010902F801099A42F9D1CCE70021D0F808
:101C8C00186206F10C0306F1180203F8011B9342CB
:101C9C00FBD1D5F81C3220465B680DF1020201A97C
:101CAC009847044628B13A2202212846FFF7FDFE48
:101CBC007BE70823F373019B013B1A0E32741A0C59
:101CCC007274F3741A0ABDF80230B2745BBA022251
:101CDC00F3820C23B28273816BE7D0E986632046D2
:101CEC005B6806F25E2206F51871984704460028D8
:101CFC00D9D1D6F860323082013B1A0E32731A0CED
:101D0C007273F3731A0AB6F85E32B2735BBA7382EB
:101D1C000823E0E7D0F818723B7A6BBB97F91832BE
:101D2C00002BBFF6E8AED0F81C3208469B689847EB
:101D3C000028B8D1D6F80220D5F8181212BAC7F874
:101D4C006422B6F80730D1F860125BBA9BB29818CF
:101D5C008842C7F8683200F2EB8002213972B7F87A
:101D6C005E124A434B43C7F86422D7F81422C7F8D3
:101D7C00683293427FF4BFAE4FF40073D5F818620B
:101D8C007B81D6F86872B6F85E229F4228BF1F4648
:101D9C00B7FBF2F3D6F86412D5F81C0206F10C0866
:101DAC00B1FBF2F2D0F81090414620469BB2C847E6
:101DBC00002802DA1122042177E7BBB242468121C6
:101DCC00284601F095FBD6F86432D6F868023B44FD
:101DDC00C6F86432D6F83432C41BDF1BC6F868422E
:101DEC00C6F83472002C7FF416AF03233372E0E68E
:101DFC00D0F818723B7A002B4AD197F91832002B85
:101E0C00FFF679AED0F81C3208469B68984700283C
:101E1C007FF449AFD5F81C322046DB68984704465E
:101E2C0008B1272240E7D6F8021009BAC7F86412A5
:101E3C00B6F807305BBA9AB2D5F818328818D3F8CE
:101E4C006032C7F86822984272D8B7F85E325943AC
:101E5C005343D7F81422C7F864129342C7F8683278
:101E6C007FF449AEB3F5007F4FF0010128BF4FF46A
:101E7C000073284639729BB207F10C0201F046FB45
:101E8C0097E600BF953700089E3700089D3700087D
:101E9C00D7F86862B7F85E22B6F5007F28BF4FF41A
:101EAC000076B6FBF2F3D7F86412D0F81C0207F1F7
:101EBC000C08B1FBF2F2D0F81490414620469BB2CC
:101ECC00C847002801DA032275E7D7F86432D7F83F
:101EDC0068423344C7F86432D7F83432A41B9E1BD3
:101EEC00C7F86842C7F8346224B921462846FFF780
:101EFC0025FD5EE6B4F5007F28BF4FF40074424622
:101F0C0001212846A3B201F001FB84E6D0F8183277
:101F1C00707810F0020001D024220AE0D3F8641289
:101F2C00B3F868220A44D3F860128A427FF695AE61
:101F3C0021220521B9E600BF10B5D0F818021B020A
:101F4C0090F85D1200EBC1040131C9B20429C4F848
:101F5C00403208BF002384F83C2214BF80F85D1285
:101F6C0080F85D3210BD08B580B1D0F8143213B1D1
:101F7C000023C0F8143209B1C0F81012012302700A
:101F8C0080F8FC3101F008FA002008BD0220FCE7C3
:101F9C0019B1C0F81412002070470220704708B520
:101FAC0001F032FA002008BD08B5D0F814320BB994
:101FBC00022008BD1B6898470028FAD0F8E708B53E
:101FCC00D0F814325B689847002008BD38B500F58E
:101FDC0002750446284600F062FA012394F80812B0
:101FEC00C4F8F431B4F80E32C4F8F83101F01F0320
:101FFC00012B08D0022B0BD07BB92946204600F0D0
:10200C00D9F8002038BD2946204600F0CDF9F8E774
:10201C002946204600F0E0F9F3E7204601F0800164
:10202C0001F02CFAEDE738B50446154601BBD0F8A3
:10203C00F431032B0DD1D0E943239A420BD9D21A98
:10204C009A42C0F80C2128BF1A46294692B200F0D9
:10205C0076FA002038BDD0F814321B6923B190F801
:10206C00FC21032A00D19847204600F070FAF0E7D3
:10207C00D0F814329B69002BEBD090F8FC21032A8A
:10208C00E7D19847E5E7F8B5044613460F46002913
:10209C003DD1D0F8F421022A0FD1D0E90756B54230
:1020AC0014D9AE1B1946C661B2B200F040FA3B46D9
:1020BC001A461946204601F029FA94F80032012BF1
:1020CC0002D1002384F800320020F8BD8369B3FBF1
:1020DC00F6F506FB153565B99E420AD8D0F8F821FD
:1020EC00934206D22A4600F022FA2B46C4F8F85145
:1020FC00DEE7D4F81432DB682BB194F8FC21032A08
:10210C0001D120469847204600F02CFAD5E7D0F8AC
:10211C0014325B69002BD7D090F8FC21032AD3D161
:10212C009847D1E7002238B5044640251146402394
:10213C0001F078F92B46002280212046C4F810517A
:10214C0001F070F9012384F8FC31D4F818322562BF
:10215C002BB1D4F8143220465B68217998470020C3
:10216C0038BD01740020704790F8FC3180F8FD31C7
:10217C00042380F8FC310020704790F8FD3180F882
:10218C00FC310020704708B590F8FC21032A04D1DB
:10219C00D0F81432DB6903B19847002008BD10B5A4
:1021AC000446802101F06AF92046BDE81040002168
:1021BC0001F064B937B54B7804460D46092B76D837
:1021CC00DFE813F0C900E5007500D90075006D005B
:1021DC000A007500B9008D004B881A0A013A062ACC
:1021EC0065D8DFE802F0041C296464495200D0F879
:1021FC0010321B68207C0DF106019847BDF80620B3
:10220C00002A67D0EB88002B64D09A4228BF1A466C
:10221C000146ADF80620204600F07CF95AE0027C1D
:10222C00D0F8143232B99B6A0DF10600984702239C
:10223C004370E3E7DB6AF7E7DBB2052B37D8DFE85F
:10224C0003F003070B0F1317D0F810325B68D1E7BC
:10225C00D0F810329B68CDE7D0F81032DB68C9E7B4
:10226C00D0F810321B69C5E7D0F810325B69C1E7B2
:10227C00D0F810329B69BDE7037CC3B9D0F8143297
:10228C000DF106005B6B9847B8E7037C7BB9D0F87F
:10229C0014320DF106001B6B98470723C8E78B8897
:1022AC002BB9CB881BB990F8FC31032B03D12046FA
:1022BC00FFF775FF0EE08D7805F07F05294680F855
:1022CC00FE5101F007F9204600F041F92DB102232F
:1022DC0084F8FC31002003B030BD0123F8E7897885
:1022EC00304D01292970E2D890F8FC31022B0CD02A
:1022FC00032BDCD1B1B90223416080F8FC31FFF72C
:10230C005EFE204600F023F9E4E70029F9D0012114
:10231C000323416080F8FC312046FFF745FE02287C
:10232C00EFD1C4E741680129EBD0C9B2FFF747FEF2
:10233C0029786160F0E7CA88012AB8D190F8FC319D
:10234C00022B03D0032BB2D1011D64E701460023FD
:10235C0041F8083F5FE790F8FC31023B012BA6D80F
:10236C000123C360D0F804320BB10323C3600222F3
:10237C0004F10C014FE74B88012BABD1C4F80432AC
:10238C00D4F81432294620469B689847B9E790F850
:10239C00FC31023B012B8AD84B88012B9AD10023AC
:1023AC00ECE700BF3C01002038B590F8FC31044646
:1023BC00032B0D460DD10B79012B0AD8D0F8143212
:1023CC009B689847EB8813B9204600F0C0F80020B2
:1023DC0038BDFFF7E4FEFAE770B50A78044602F060
:1023EC006002202A0D468E880B7905D1D0F8143264
:1023FC009B689847002070BD4A78012A3AD0032A7E
:10240C001DD0002AF6D190F8FC21022A41D0032AD3
:10241C001BD103F07F0500EB0515320619464CBFA6
:10242C00143505F5827501F045F8003818BF012008
:10243C00022228602946204600F06CF8DAE790F872
:10244C00FC21022A25D0032A03D02046FFF7A7FE41
:10245C00D0E74A8822B95A0602D0194601F00EF884
:10246C00D4F81432294620469B689847204600F041
:10247C006EF8BFE790F8FC21022A0AD0032AE4D1B7
:10248C004A88002AB6D15E06F0D0194601F004F84D
:10249C00E6E75906AED0194600F0F0FFAAE70B7834
:1024AC0003704B784370CA788B7803EB022343801C
:1024BC004A790B7903EB02238380CA798B7903EB7E
:1024CC000223C380704710B50446802100F0D6FF6C
:1024DC002046BDE81040002100F0D0BF30B588B1D7
:1024EC00002501382B460135445D002CFAD1DBB2B6
:1024FC0001335B0013800B7003234B70022310F825
:10250C00015F05B930BD5A1CCD54D2B20233DBB2D7
:10251C008C54F4E71346022210B5C0E90633C0F818
:10252C00F4210A46002100F0E3FF002010BD08B59D
:10253C0013460A46002100F0DBFF002008BD08B559
:10254C0013460A46002100F0E1FF002008BD08B543
:10255C000423C0F8F43100231A46194600F0C8FFD2
:10256C00002008BD08B50523C0F8F43100231A4635
:10257C00194600F0CBFF002008BDF0B500010C1D82
:10258C001431231F16181D7816F8017B7D4003F8B3
:10259C00015BA342F7D11C1D8C4200F10400F0D169
:1025AC00F0BDF03001F1100351F8042B994240F8C2
:1025BC00042BF9D170477FB5024603466D4600F1F6
:1025CC0010062C4618685968083303C4B3422546D4
:1025DC00F7D1DDE90201DDE90064C308E50745EA4E
:1025EC00560583EA940300957340C50745EA5405E4
:1025FC0083EAD01383EA51130195CD07490841EAC8
:10260C00C37303936C46134645EA5005029504AD1B
:10261C00224603CAAA4218605960144603F1080303
:10262C00F6D104B070BD00002DE9F04F054600272F
:10263C0087B0CDE90012019B9F4202D307B0BDE8E1
:10264C00F08F02AA164605F1F00305F5807C1446BE
:10265C0018685968083303C463452246F7D13146DC
:10266C002A460020FFF789FF012600234FF0000CBB
:10267C0002AC19190878564A0CF1010C105CBCF12B
:10268C00040F01F8040BF5D10133042BEED19DF8A6
:10269C000D209DF809308DF809209DF811200E2E83
:1026AC008DF80D209DF815208DF815308DF8112022
:1026BC009DF812209DF80A308DF80A209DF81620FE
:1026CC008DF812309DF80E308DF80E209DF81720E5
:1026DC008DF816309DF80B308DF80B209DF81320DB
:1026EC008DF817209DF80F208DF80F308DF81320E2
:1026FC0054D04FF00008227894F801C0A07882EAF8
:10270C000C0AE1784FEADA134FEA430B80EA01092D
:10271C005B448AEA090E03EBC30383EA4A0A82EAA2
:10272C000E038AEA030A84F800A08CEA000A4FEA36
:10273C00DA134FEA430B5B4403EBC3038CEA0E0C36
:10274C0083EA4A0383EA0C0363704FEAD9134FEA16
:10275C00430C634403EBC3034A4083EA490980EA10
:10276C000E0089EA0000D309A0705800034403EB63
:10277C00C30383EA420381EA0E0108F101085940C0
:10278C00B8F1040FE17004F10404B4D130462A46C8
:10279C0002A90136FFF7F1FEF6B266E72A4621469A
:1027AC003046FFF7EAFE009B009A013B02F10F0155
:1027BC0013F8010F14F8012B994282EA00021A70E7
:1027CC00F6D105F1F000FFF7F6FE103733E700BF46
:1027DC00A5370008F0B50446D0B285B080F084036C
:1027EC000D46C2F307218DF8003081F05E038DF8A1
:1027FC000130C2F3074383F0F406120E8DF8026029
:10280C0082F023068DF8036080F036068DF80460A4
:10281C0081F083068DF8056083F040068DF8066024
:10282C0082F08E068DF8076080F083068DF80860C4
:10283C0081F022068DF8096083F074068DF80A6029
:10284C0082F0CF068DF80B60652680F0F10081F0E8
:10285C00F00182F0CC0283F007038DF80C008DF8A8
:10286C000D108DF80E308DF80F20DDE90070DDE9CC
:10287C000221731E13F0FF060ED1CDE90221CDE922
:10288C00007069461048FFF78CFE2A4621460E4818
:10289C00FFF7CAFE05B0F0BDD30883EA90037B4076
:1028AC004FEAC07C83EAD21383EA51134CEA5707F0
:1028BC004FEAC27C4CEA5000DB074FEAC17C4CEA81
:1028CC00520243EA5101D4E73D0100202DE9F043C7
:1028DC0087B00E4614460546FDF750FD00F002FA8F
:1028EC0038B1102C40F082802A4621463046FFF742
:1028FC0071FF3F4B9D4210D100272C2301A902A848
:10290C00CDE9017704950593FDF7F4FD50B1FDF782
:10291C0047FD384607B0BDE8F08346D3354B621906
:10292C009A4242D815F0030017D0C0F104034FF0BF
:10293C00FF37A342A8BF2346029702AF384425F0C5
:10294C000301DAB2F718BE4231D1A41A1D44022099
:10295C000023029AE4B2FDF757FD3746A046A5EBDB
:10296C000609B8F1030F09EB070107F1040723D897
:10297C00A208C2EB821204F0FC0104EB820414F0F6
:10298C00FF040E44294410D04FF0FF330293002370
:10299C0002AAF05C013302F8010BD8B2A042F8D3C2
:1029AC0000230220029AFDF72FFD0127AFE716F84E
:1029BC0001CB00F801CBC6E717F8043C02208DF8D8
:1029CC00083017F8033CA8F104088DF8093017F803
:1029DC00023C5FFA88F88DF80A3017F8013C8DF844
:1029EC000B30029A0023FDF70FFDBAE7002790E7A2
:1029FC00005000080000010838B5C1F30803044674
:102A0C00002B40F0158111B1B1F5406F0CD15A2259
:102A1C008849204600F066FE4FF4D272002104F182
:102A2C005A0000F06DFE33E0B1F5007F02D0B1F535
:102A3C00606F35D14FF400720021204600F060FE2B
:102A4C005222227062706122A27084F8E7216FF02A
:102A5C00410284F8E8216FF0670284F8E92103222F
:102A6C0084F8EA21052200234121722084F8EC210C
:102A7C000822E17084F8E40184F8E50184F8E61199
:102A8C0084F8EB3184F8ED2184F8EE3184F8EF31E1
:102A9C00552384F8FE31AA2384F8FF310120B3E0DA
:102AAC00B1F5806F02D0B1F5805F04D14FF40072A4
:102ABC0000212046B5E7A1F50B13A3F56053B3F540
:102ACC00085F06D3A1F54512A2F57052B2F5085F66
:102ADC0036D29808584B994212D14FF0FF33574ACF
:102AEC00C4E900236FF07043C4E9023344F8103F8B
:102AFC000623C2180133812B44F8042FF9D1CDE7FA
:102B0C004F4B01229942A4F1040312D181180132D6
:102B1C00052A43F8041FF9D123466FF0704243F89D
:102B2C00102F002204F5FE7443F8042FA342FBD1AE
:102B3C00B4E781180132812A43F8041FF9D1ADE7BB
:102B4C00B1F5800F61D14FF40072002100F0D8FD77
:102B5C003C4B6FF063011A683B4822605A68056869
:102B6C0062601A899B7A2281A37208235022E37235
:102B7C000023256245686274E27462762373637382
:102B8C00A373E3732174A17423756375A375E37543
:102B9C002176A376E37623776377A377E377656271
:102BAC000589807A84F8312084F82A00212084F861
:102BBC00332084F82B0084F839201820052284F85F
:102BCC002C0084F83A2001201C22258584F82D3015
:102BDC0084F82E3084F82F3084F8301084F83210BA
:102BEC0084F8343084F8353084F8363084F8373053
:102BFC0084F8381084F83B3084F83C2084F83D008D
:102C0C0084F83E3084F83F3038BDA1F58001A1F541
:102C1C00C061B1F5007F05D240F21D120B4900F0E6
:102C2C0061FD3BE74FF40072002100F069FD35E7D0
:102C3C000020E9E73437000800F82200F8FFFF0F06
:102C4C0000182300A5380008B1380008BD3800086A
:102C5C0038B5C1F308030446FBB9B1F5800F01D2B6
:102C6C00012038BD10D100F50075237A482B07D10F
:102C7C00637A452B04D1A37A582B01D100F012F8BA
:102C8C002034AC42F1D1EBE7054800F025F84FF4C5
:102C9C000071204600F02CF8E2E70020E1E700BFCD
:102CAC00D92800080023064A1370064A1380064AE6
:102CBC001380064A1370064A1370064A1370704745
:102CCC0051030020400200203E0200204E03002051
:102CDC004C0200204F030020014B1860704700BFCE
:102CEC0048020020014B1878704700BF4C020020AE
:102CFC002DE9F843002507466D4EDFF8E89100EB0F
:102D0C000108B84502D10120BDE8F88317F8013B52
:102D1C00002BF8D03478CCB9664A0D2B1470664A67
:102D2C001470EED00A2BECD03A2B36D1634BFF2229
:102D3C001C70634B21461C70624B63481C8000F076
:102D4C00DFFC0123A9F800403370DAE7621ED1B230
:102D5C000A2914D8A3F13005EDB2092D06D9A3F137
:102D6C004101052915D8A3F13705EDB25249574B4E
:102D7C00087880F0010CA8B91D7081F800C00A2AEF
:102D8C000BD8DFE802F0181820202020262A374B19
:102D9C004D00A3F16101192901D90020B4E7A3F179
:102DAC005705E2E743481B7890F800E045EA031327
:102DBC0073440370E1E7414A137845EA0313137037
:102DCC00013434709DE73F4A138845EA031313809E
:102DDC00F6E7002DE1D10823B6E7052D01D90E2D1C
:102DEC00DBD1374B1D70354B1B780BB90A23ABE786
:102DFC000923A9E7B9F800303348C3F34701425C13
:102E0C00013345EA021242542C4A9BB21278A9F8BB
:102E1C000030B2EB530F3FF674AFE7E70B2393E7A9
:102E2C00264BB9F800201B78B2EB430FB5D1214BE0
:102E3C0019780029B1D1224B1B78022B0AD1224AD6
:102E4C0011785378224A43EA01231380214B012243
:102E5C001A700AE0042B0AD11B4A107853781C4ACA
:102E6C0043EA002313801B4B197000236CE7B3B9A2
:102E7C00194B1B68002BF8D0164C154911482478B7
:102E8C000988008844B100EB01100F49C2F34702D6
:102E9C0098470028E9D180E740EA0140F5E70E2B7E
:102EAC0001D10E4BD3E7012B04BF0D4A1370DCE7A5
:102EBC005103002043020020440200204202002063
:102ECC0050030020400200204D020020520300203D
:102EDC003E0200204E030020480200204C0200203D
:102EEC004F0300204C030020014B1878704700BFA3
:102EFC004F0300200C4B1B68013B033311D90B4BC8
:102F0C001B68013B03330CD9094B1B68013B033392
:102F1C0007D9084B18680138C31C8CBF002001204E
:102F2C0070470120704700BF005000080450000893
:102F3C00085000080C500008024B9868C04300F081
:102F4C0001007047000C014080B54FF4FA70FEF799
:102F5C00BFFB2448FDF798FB2348244A92FAA2F1C0
:102F6C00B1FA81F192FAA2F7B7FA87F792FAA2F6C0
:102F7C00B6FA86F692FAA2F5B5FA85F592FAA2F4AB
:102F8C00B4FA84F492FAA2F20F238A0003FA02F242
:102F9C004368B90023EA020301228A401343032247
:102FAC00B1008A4023EA02030222A9008A4013439B
:102FBC000422A1008A4023EA020343604FF48053A9
:102FCC0043614FF47A70FEF783FBBFF34F8F0849D0
:102FDC00084BCA6802F4E0621343CB60BFF34F8F17
:102FEC0000BFFDE714080020000801401000100489
:102FFC0000ED00E00400FA05234B10B51A6822F02E
:10300C00070242F002021A601A6802F00702022A52
:10301C00FAD11E4C236843F48033236023689A034F
:10302C00FCD5636823F47C1343F4E81363602368D2
:10303C0043F08073236023689B01FCD5636823F005
:10304C00F0036360636823F4E06343F480636360BC
:10305C00636823F4605343F400536360636823F0A4
:10306C00030343F002036360636803F00C03082B53
:10307C00FAD10748FEF740FB0020FDF797F863688C
:10308C0023F48003636010BD002002400010024056
:10309C0000A24A04002580B588B0FDF7ABF8FFF715
:1030AC00ABFFCDE90555404B01269A69022742F04A
:1030BC0008029A619A693D4C02F008020292029A47
:1030CC009A6903A942F004029A619B6940F20112C9
:1030DC0003F004030193019B08232046CDE903234D
:1030EC000796FDF760FE324B03A92046CDE9033667
:1030FC0007950597FDF757FE44F2400303A92D48A9
:10310C00CDE9033607950597FDF74DFE4FF4804347
:10311C0023614FF4005364202361FDF78FF84FF0C7
:10312C00804323614FF000532361FFF7E3FE80B926
:10313C0000F0AAF84FF4804323614FF4005323614D
:10314C00FFF7D2FE0028FBD000221B4B1A60FFF7C2
:10315C00FBFEFFF7F1FE05460028E9D1164B1A6875
:10316C00164B9A42E4D0164B164C1B682360FDF7A5
:10317C000DF84FF0FF32144BC3F88020C3F88420B5
:10318C00C3F88820C3F88021C3F88421C3F88821B0
:10319C0043F8F05C0D4A0E4B93601B6883F3088870
:1031AC0023689847FEE700BF00100240000C014066
:1031BC006000600400080140FC4F00207856341277
:1031CC00045000085403002000E100E000ED00E092
:1031DC0000500008704700000E4B82B09A6942F014
:1031EC0001029A619A6902F001020092009ADA696E
:1031FC0042F08052DA61DB69074A03F08053019395
:10320C00019B536823F0E06343F00073536002B0FA
:10321C00704700BF00100240000001407047FEE7FD
:10322C00FEE7FEE7FEE7704770477047FCF7F4BF18
:10323C000148FDF7CBBA00BF140800200F4B1A68E9
:10324C0042F001021A6059680D4A0A405A601A6825
:10325C0022F0847222F480321A601A6822F48022DE
:10326C001A605A6822F4FE025A604FF41F029A60E8
:10327C004FF00062034B9A60704700BF0010024091
:10328C000000FFF800ED00E008B500220E490F48E1
:10329C00FEF769FE08B1FFF79DFF0D490B48FEF7DD
:1032AC0077FE08B1FFF796FF0A490848FEF7F4FAD3
:1032BC0008B1FFF78FFF0548FEF771FE18B1BDE8A6
:1032CC000840FFF787BF08BDB0000020F0050020C4
:1032DC00080000200001002007B50E4B02689A423E
:1032EC0015D103F5DA33DA69142042F40002DA61FD
:1032FC000022DB69114603F400030193019BFCF7E8
:10330C00C1FF142003B05DF804EBFCF7EDBF03B074
:10331C005DF804FB005C004000F22C41D0F85C042A
:10332C00FEF754BE00EB4113D3F83C22D0F85C04FA
:10333C00FEF779BE00EB4113DA6BD0F85C04FEF7B4
:10334C00A2BED0F85C04FEF71EBF836810B5022B3A
:10335C00044601D0FFF73EFFD4F85C040121FEF7D0
:10336C0000FFD4F85C04BDE81040FEF7DBBE0000A3
:10337C0010B50446D0F85C04FEF7F6FEA36923B141
:10338C00024A136943F00603136110BD00ED00E01F
:10339C00D0F85C04FEF7F1BE082310B5184A0446B9
:1033AC001848C0E90023022383600023C0F85C4462
:1033BC00C4F82002C0E906330362FDF7E7F808B150
:1033CC00FFF708FF002218231146D4F82002FDF75E
:1033DC00D1FC582300228021D4F82002FDF7CAFC2E
:1033EC00982300228121D4F82002FDF7C3FCD823B6
:1033FC0000220121D4F82002FDF7BCFC002010BDF6
:10340C00005C00401408002008B5D0F82002FDF73D
:10341C0024F9032896BF024B0220185C08BD00BF9C
:10342C00DA39000810B51446D0F820021A462346A3
:10343C00FDF756F9032896BF014B0220185C10BD0E
:10344C00DA39000808B5D0F82002FDF76CF903282A
:10345C0096BF024B0220185C08BD00BFDA39000889
:10346C0008B5D0F82002FDF76CFC032896BF024B80
:10347C000220185C08BD00BFDA39000808B5D0F886
:10348C002002FDF713FC032896BF024B0220185CA8
:10349C0008BD00BFDA39000808B5D0F82002FDF7E6
:1034AC002DFC032896BF024B0220185C08BD00BF00
:1034BC00DA3900080A06D0F8203245BF01F07F0146
:1034CC0003EB411103EB411191F82A0058BF91F81D
:1034DC002A02704708B5D0F82002FDF7EDF8032852
:1034EC0096BF024B0220185C08BD00BFDA390008F9
:1034FC0008B5D0F82002FDF753F9032896BF024B0C
:10350C000220185C08BD00BFDA39000808B5D0F8F5
:10351C002002FDF729F9032896BF024B0220185C04
:10352C0008BD00BFDA39000808B5D0F82002FDF755
:10353C0030F908BD004870475803002070477047A9
:10354C00122301480B807047CC0000200423014853
:10355C000B807047E0000020002370B51E464D1C08
:10356C00040FB0F1204F34BF3034373401F813401E
:10357C0005F813600133DCB2A2424FEA0010EFD819
:10358C0070BD00001A2310B50B80094B1868083366
:10359C001B68C0180AD0074B08221C680649FFF7A5
:1035AC00DBFF042220460549FFF7D6FF044810BD77
:1035BC00E8F7FF1FECF7FF1FE6000020F6000020E5
:1035CC00E400002010B5044C0A4604482146FEF7DE
:1035DC0085FF204610BD00BF740C0020DE390008AA
:1035EC0010B5044C0A4604482146FEF777FF2046E6
:1035FC0010BD00BF740C0020E739000810B5044C56
:10360C000A4604482146FEF769FF204610BD00BF5C
:10361C00740C0020FA39000810B5044C0A46044812
:10362C002146FEF75BFF204610BD00BF740C002046
:10363C00053A0008002070474FF470330B604FF4CC
:10364C00007300201380704700207047F8B50E46B9
:10365C001D4600245702A5424FEA442106EB4420A4
:10366C0001D80020F8BD3944FFF7F2FA0134F2E733
:10367C00F8B50E461D4600245702A5424FEA4421D8
:10368C0006EB442001D80020F8BD3944FFF7B4F90B
:10369C000134F2E7002070470020704770B5002617
:1036AC000C4D0D4C641BA410A64209D100F030F84F
:1036BC0000260A4D0A4C641BA410A64205D170BD0D
:1036CC0055F8043B98470136EEE755F8043B98470C
:1036DC000136F2E7383A0008383A0008383A000860
:1036EC003C3A00080A44914200F1FF3300D1704784
:1036FC0010B511F8014B914203F8014FF9D110BDEF
:10370C0003460244934200D1704703F8011BF9E7CA
:10371C00F8B500BFF8BC08BC9E467047F8B500BFB2
:08372C00F8BC08BC9E46704782
:10373400EBFE904D53444F53352E300002017C1163
:103744000200000000F800003F00FF003F000000FE
:10375400C1C0030042070000000000000200000096
:10376400010006000000000000000000000000004E
:10377400800029B04990024E4F204E414D452020F3
:10378400202046415433322020200006000000004F
:1037940000000000000000000000000000030080A2
:1037A40083637C777BF26B6FC53001672BFED7ABED
:1037B40076CA82C97DFA5947F0ADD4A2AF9CA472EF
:1037C400C0B7FD9326363FF7CC34A5E5F171D83167
:1037D4001504C723C31896059A071280E2EB27B293
:1037E4007509832C1A1B6E5AA0523BD6B329E32FBA
:1037F4008453D100ED20FCB15B6ACBBE394A4C58EE
:10380400CFD0EFAAFB434D338545F9027F503C9F4F
:10381400A851A3408F929D38F5BCB6DA2110FFF36E
:10382400D2CD0C13EC5F974417C4A77E3D645D1999
:103834007360814FDC222A908846EEB814DE5E0B5A
:10384400DBE0323A0A4906245CC2D3AC629195E4C7
:1038540079E7C8376D8DD54EA96C56F4EA657AAE12
:1038640008BA78252E1CA6B4C6E8DD741F4BBD8BA0
:103874008A703EB5664803F60E613557B986C11D98
:103884009EE1F8981169D98E949B1E87E9CE55283C
:10389400DF8CA1890DBFE6426841992D0FB054BB5E
:1038A400164C494E5F48455820202020005245417F
:1038B400444D45202054585400D09ED0B1D0BDD0A2
:1038C400BED0B2D0BBD0B5D0BDD0B8D0B520D0BF5B
:1038D400D180D0BED188D0B8D0B2D0BAD0B820D0A0
:1038E400BFD180D0B8D0B1D0BED180D0B03A0A31E7
:1038F4002ED09FD0B5D180D0B5D182D0B0D189D0CF
:10390400B8D182D0B520D184D0B0D0B9D0BB20D02A
:10391400BFD180D0BED188D0B8D0B2D0BAD0B82070
:10392400D0B220D184D0BED180D0BCD0B0D182D08E
:10393400B52068657820D0BDD0B020D0B4D0B8D13F
:1039440081D0BA0A322ED094D0BED0B6D0B4D0B87A
:10395400D182D0B5D181D18C20D0B7D0B0D0BFD056
:10396400B8D181D0B820D184D0B0D0B9D0BBD0B038
:103974000A332ED09FD0BE20D0BED0BAD0BED0BD88
:10398400D187D0B0D0BDD0B8D18E20D0B7D0B0D0F0
:10399400BFD0B8D181D0B82C20D0BED0BAD0BED13F
:1039A40088D0BAD0BE20D18120D0B4D0B8D181D0B3
:1039B400BAD0BED0BC20D0B4D0BED0BBD0B6D0BD5F
:1039C400D0BE20D0B7D0B0D0BAD180D18BD182D1E3
:1039D4008CD181D18F000002010242757269746139
:1039E4006B61004F4243204D6173732053746F72B7
:1039F4006167652020004D534320436F6E666967FD
:103A0400004D534320496E7465726661636500001E
:103A14008002021F00000053544D2020202020501B
:103A2400726F6475637420202020202020202030B1
:043A34002E303100FF
:043A38003101000850
:043A3C000D01000870
:103A40000100000010000000411700088D17000859
:103A5000B9170008000000000000000091180008DD
:103A60009B1800080000000000000000000000009B
:103A7000111700081D17000829170008351700083E
:103A800009022000010104C03209040000020806F6
:103A900050050705810240000007050102400000B3
:103AA00009022000010104C03209040000020806D6
:103AB000500507058102000200070501020002000F
:103AC0000A06000200000040010000000907200073
:103AD000010104C032090400000208065005070570
:103AE00081024000000705010240000000A24A04D4
:103AF0004D35000859350008D1350008ED3500086E
:103B00009135000809360008253600081201000228
:103B10000000004083042A57000201020301000054
:103B2000040309041A030000000000000000000064
:103B30000000000000000000000000000000000085
:103B40004136000845360008A5360008A1360008B1
:103B50007D3600085936000855360008133A00082B
:020000042000DA
:044FFC0000000000B1
:040000050800014DA1
:00000001FF
